{
  "_format": "hh-sol-artifact-1",
  "contractName": "Trading",
  "sourceName": "contracts/Trading.sol",
  "abi": [
    {
      "inputs": [
        {
          "internalType": "address",
          "name": "_USDC_ADDRESS",
          "type": "address"
        },
        {
          "internalType": "address[]",
          "name": "_tokens",
          "type": "address[]"
        },
        {
          "internalType": "address",
          "name": "_swapRouterAddress",
          "type": "address"
        },
        {
          "internalType": "address",
          "name": "_gmxRouter",
          "type": "address"
        },
        {
          "internalType": "address",
          "name": "_gmxPositionRouter",
          "type": "address"
        }
      ],
      "stateMutability": "nonpayable",
      "type": "constructor"
    },
    {
      "anonymous": false,
      "inputs": [
        {
          "indexed": true,
          "internalType": "address",
          "name": "previousOwner",
          "type": "address"
        },
        {
          "indexed": true,
          "internalType": "address",
          "name": "newOwner",
          "type": "address"
        }
      ],
      "name": "OwnershipTransferred",
      "type": "event"
    },
    {
      "anonymous": false,
      "inputs": [
        {
          "indexed": false,
          "internalType": "address",
          "name": "user",
          "type": "address"
        },
        {
          "components": [
            {
              "internalType": "uint256",
              "name": "userOwnership",
              "type": "uint256"
            },
            {
              "internalType": "uint256",
              "name": "initialInvestment",
              "type": "uint256"
            },
            {
              "internalType": "uint256",
              "name": "annualFeeColectedTime",
              "type": "uint256"
            }
          ],
          "indexed": false,
          "internalType": "struct Investment",
          "name": "newInvestment",
          "type": "tuple"
        }
      ],
      "name": "feeCollected",
      "type": "event"
    },
    {
      "anonymous": false,
      "inputs": [
        {
          "indexed": false,
          "internalType": "address",
          "name": "user",
          "type": "address"
        },
        {
          "components": [
            {
              "internalType": "uint256",
              "name": "userOwnership",
              "type": "uint256"
            },
            {
              "internalType": "uint256",
              "name": "initialInvestment",
              "type": "uint256"
            },
            {
              "internalType": "uint256",
              "name": "annualFeeColectedTime",
              "type": "uint256"
            }
          ],
          "indexed": false,
          "internalType": "struct Investment",
          "name": "investment",
          "type": "tuple"
        }
      ],
      "name": "userDeposit",
      "type": "event"
    },
    {
      "anonymous": false,
      "inputs": [
        {
          "indexed": false,
          "internalType": "address",
          "name": "user",
          "type": "address"
        },
        {
          "components": [
            {
              "internalType": "uint256",
              "name": "userOwnership",
              "type": "uint256"
            },
            {
              "internalType": "uint256",
              "name": "initialInvestment",
              "type": "uint256"
            },
            {
              "internalType": "uint256",
              "name": "annualFeeColectedTime",
              "type": "uint256"
            }
          ],
          "indexed": false,
          "internalType": "struct Investment",
          "name": "investment",
          "type": "tuple"
        },
        {
          "indexed": false,
          "internalType": "uint256",
          "name": "amount",
          "type": "uint256"
        },
        {
          "indexed": false,
          "internalType": "uint256",
          "name": "USDC_AMOUNT",
          "type": "uint256"
        }
      ],
      "name": "withdrawnFromInvestment",
      "type": "event"
    },
    {
      "inputs": [
        {
          "internalType": "address",
          "name": "user",
          "type": "address"
        },
        {
          "internalType": "uint256",
          "name": "investmentNumber",
          "type": "uint256"
        }
      ],
      "name": "collectFees",
      "outputs": [],
      "stateMutability": "nonpayable",
      "type": "function"
    },
    {
      "inputs": [
        {
          "internalType": "uint256",
          "name": "amount",
          "type": "uint256"
        }
      ],
      "name": "deposit",
      "outputs": [],
      "stateMutability": "nonpayable",
      "type": "function"
    },
    {
      "inputs": [
        {
          "internalType": "uint256",
          "name": "amount",
          "type": "uint256"
        },
        {
          "internalType": "address",
          "name": "investor",
          "type": "address"
        }
      ],
      "name": "depositTroughtRequest",
      "outputs": [],
      "stateMutability": "nonpayable",
      "type": "function"
    },
    {
      "inputs": [],
      "name": "getContractValue",
      "outputs": [
        {
          "internalType": "uint256",
          "name": "",
          "type": "uint256"
        }
      ],
      "stateMutability": "view",
      "type": "function"
    },
    {
      "inputs": [
        {
          "internalType": "address",
          "name": "user",
          "type": "address"
        },
        {
          "internalType": "uint256",
          "name": "investmentNumber",
          "type": "uint256"
        }
      ],
      "name": "getUSDCValueFromInvestment",
      "outputs": [
        {
          "internalType": "uint256",
          "name": "",
          "type": "uint256"
        }
      ],
      "stateMutability": "view",
      "type": "function"
    },
    {
      "inputs": [
        {
          "internalType": "address",
          "name": "user",
          "type": "address"
        }
      ],
      "name": "getUserInvestments",
      "outputs": [
        {
          "components": [
            {
              "internalType": "uint256",
              "name": "userOwnership",
              "type": "uint256"
            },
            {
              "internalType": "uint256",
              "name": "initialInvestment",
              "type": "uint256"
            },
            {
              "internalType": "uint256",
              "name": "annualFeeColectedTime",
              "type": "uint256"
            }
          ],
          "internalType": "struct Investment[]",
          "name": "",
          "type": "tuple[]"
        }
      ],
      "stateMutability": "view",
      "type": "function"
    },
    {
      "inputs": [],
      "name": "gettotalUserOwnershipPoints",
      "outputs": [
        {
          "internalType": "uint256",
          "name": "",
          "type": "uint256"
        }
      ],
      "stateMutability": "view",
      "type": "function"
    },
    {
      "inputs": [],
      "name": "owner",
      "outputs": [
        {
          "internalType": "address",
          "name": "",
          "type": "address"
        }
      ],
      "stateMutability": "view",
      "type": "function"
    },
    {
      "inputs": [],
      "name": "renounceOwnership",
      "outputs": [],
      "stateMutability": "nonpayable",
      "type": "function"
    },
    {
      "inputs": [
        {
          "internalType": "uint256",
          "name": "amount",
          "type": "uint256"
        }
      ],
      "name": "setMaxAssetsDeposited",
      "outputs": [],
      "stateMutability": "nonpayable",
      "type": "function"
    },
    {
      "inputs": [
        {
          "internalType": "address",
          "name": "_address",
          "type": "address"
        }
      ],
      "name": "setRequestActionAddress",
      "outputs": [],
      "stateMutability": "nonpayable",
      "type": "function"
    },
    {
      "inputs": [
        {
          "internalType": "uint256",
          "name": "amount",
          "type": "uint256"
        }
      ],
      "name": "setmockedPositionValue",
      "outputs": [],
      "stateMutability": "nonpayable",
      "type": "function"
    },
    {
      "inputs": [],
      "name": "swapRouter",
      "outputs": [
        {
          "internalType": "contract ISwapRouter",
          "name": "",
          "type": "address"
        }
      ],
      "stateMutability": "view",
      "type": "function"
    },
    {
      "inputs": [
        {
          "internalType": "uint256",
          "name": "_amountIn",
          "type": "uint256"
        },
        {
          "internalType": "address",
          "name": "_tokenIn",
          "type": "address"
        },
        {
          "internalType": "address",
          "name": "_tokenOut",
          "type": "address"
        },
        {
          "internalType": "uint24",
          "name": "poolFee",
          "type": "uint24"
        },
        {
          "internalType": "uint256",
          "name": "_amountOutMinimum",
          "type": "uint256"
        },
        {
          "internalType": "uint160",
          "name": "_sqrtPriceLimitX96",
          "type": "uint160"
        }
      ],
      "name": "swapTokens",
      "outputs": [
        {
          "internalType": "uint256",
          "name": "amountOut",
          "type": "uint256"
        }
      ],
      "stateMutability": "nonpayable",
      "type": "function"
    },
    {
      "inputs": [
        {
          "internalType": "uint256",
          "name": "_amountIn",
          "type": "uint256"
        },
        {
          "internalType": "address",
          "name": "_tokenIn",
          "type": "address"
        },
        {
          "internalType": "address[]",
          "name": "middlemanTokens",
          "type": "address[]"
        },
        {
          "internalType": "address",
          "name": "_tokenOut",
          "type": "address"
        },
        {
          "internalType": "uint24[]",
          "name": "poolFees",
          "type": "uint24[]"
        },
        {
          "internalType": "uint256",
          "name": "_amountOutMinimum",
          "type": "uint256"
        }
      ],
      "name": "swapTokensMultihop",
      "outputs": [
        {
          "internalType": "uint256",
          "name": "amountOut",
          "type": "uint256"
        }
      ],
      "stateMutability": "nonpayable",
      "type": "function"
    },
    {
      "inputs": [
        {
          "internalType": "address",
          "name": "newOwner",
          "type": "address"
        }
      ],
      "name": "transferOwnership",
      "outputs": [],
      "stateMutability": "nonpayable",
      "type": "function"
    },
    {
      "inputs": [
        {
          "internalType": "uint256",
          "name": "amount",
          "type": "uint256"
        },
        {
          "internalType": "uint256",
          "name": "investmentNumber",
          "type": "uint256"
        }
      ],
      "name": "withdraw",
      "outputs": [],
      "stateMutability": "nonpayable",
      "type": "function"
    },
    {
      "inputs": [
        {
          "components": [
            {
              "internalType": "uint256",
              "name": "amount",
              "type": "uint256"
            },
            {
              "internalType": "uint256",
              "name": "investmentNumber",
              "type": "uint256"
            }
          ],
          "internalType": "struct WithdrawObject[]",
          "name": "withdrawals",
          "type": "tuple[]"
        },
        {
          "internalType": "uint256",
          "name": "lenght",
          "type": "uint256"
        }
      ],
      "name": "withdrawMultiple",
      "outputs": [],
      "stateMutability": "nonpayable",
      "type": "function"
    },
    {
      "inputs": [
        {
          "internalType": "uint256",
          "name": "amount",
          "type": "uint256"
        },
        {
          "internalType": "address",
          "name": "investor",
          "type": "address"
        },
        {
          "internalType": "uint256",
          "name": "investmentNumber",
          "type": "uint256"
        }
      ],
      "name": "withdrawTroughtRequest",
      "outputs": [],
      "stateMutability": "nonpayable",
      "type": "function"
    }
  ],
  "bytecode": "0x60c06040523480156200001157600080fd5b50604051620028c3380380620028c38339810160408190526200003491620001c5565b6200003f3362000158565b6001600160601b0319606086811b82166080526509184e72a00060025584901b1660a05260005b84518160ff161015620000e457600160066000878460ff16815181106200009d57634e487b7160e01b600052603260045260246000fd5b6020908102919091018101516001600160a01b03168252810191909152604001600020805460ff191691151591909117905580620000db81620002e7565b91505062000066565b505060408051606081018252633b9aca008082526305f5e1006020808401918252428486019081523360009081526003808452968120805460018181018355918352939091209551929096029094019081559051938101939093559051600290920191909155600455506200032a92505050565b600080546001600160a01b038381166001600160a01b0319831681178455604051919092169283917f8be0079c531659141344cd1fd0a4f28419497f9722a3daafe3b4186f6b6457e09190a35050565b80516001600160a01b0381168114620001c057600080fd5b919050565b600080600080600060a08688031215620001dd578081fd5b620001e886620001a8565b602087810151919650906001600160401b038082111562000207578384fd5b818901915089601f8301126200021b578384fd5b81518181111562000230576200023062000314565b838102604051601f19603f8301168101818110858211171562000257576200025762000314565b604052828152858101935084860182860187018e101562000276578788fd5b8795505b83861015620002a3576200028e81620001a8565b8552600195909501949386019386016200027a565b50809950505050505050620002bb60408701620001a8565b9250620002cb60608701620001a8565b9150620002db60808701620001a8565b90509295509295909350565b600060ff821660ff8114156200030b57634e487b7160e01b82526011600452602482fd5b60010192915050565b634e487b7160e01b600052604160045260246000fd5b60805160601c60a05160601c61250b620003b8600039600081816102090152818161066f015281816106c20152818161160901526116c601526000818161093801528181610a0201528181610ce001528181610dc40152818161103d015281816111a30152818161128c015281816115020152818161190d015281816119cf0152611b7f015261250b6000f3fe608060405234801561001057600080fd5b50600436106101215760003560e01c8063a033fcd4116100ad578063dc82697c11610071578063dc82697c1461025e578063e52c6cfb14610266578063f28e5d5214610279578063f2fde38b1461028c578063f3b371071461029f57610121565b8063a033fcd4146101de578063b6b55f25146101f1578063c31c9c0714610204578063c52c5c881461022b578063c5cf7e531461024b57610121565b8063441a3e70116100f4578063441a3e70146101785780636311a2951461018b578063631699361461019e578063715018a6146101b15780638da5cb5b146101b957610121565b80630d9bbc11146101265780631cc40eb41461013b5780631e4d42541461014e5780632df1a07d14610165575b600080fd5b610139610134366004612045565b6102b2565b005b610139610149366004611f3e565b6102bf565b6004545b6040519081526020015b60405180910390f35b610152610173366004612111565b610341565b6101396101863660046121ed565b610760565b610139610199366004611ef0565b610af7565b6101526101ac366004611f13565b610b37565b610139610bb1565b6000546001600160a01b03165b6040516001600160a01b03909116815260200161015c565b6101396101ec366004611f13565b610bc5565b6101396101ff366004612045565b611011565b6101c67f000000000000000000000000000000000000000000000000000000000000000081565b61023e610239366004611ef0565b61144e565b60405161015c9190612295565b610139610259366004612045565b600855565b6101526114e2565b6101526102743660046120a4565b611593565b6101396102873660046121b6565b611750565b61013961029a366004611ef0565b611ab3565b6101396102ad366004612075565b611b2c565b6102ba611cea565b600255565b60005b8181101561033c5761032a8382815181106102ed57634e487b7160e01b600052603260045260246000fd5b60200260200101516000015184838151811061031957634e487b7160e01b600052603260045260246000fd5b602002602001015160200151610760565b8061033481612479565b9150506102c2565b505050565b600061034b611cea565b6001600160a01b03881660009081526006602052604090205460ff161515600114801561039557506001600160a01b03851660009081526006602052604090205460ff1615156001145b6103ba5760405162461bcd60e51b81526004016103b1906122f7565b60405180910390fd5b606060018714156104d55788858560008181106103e757634e487b7160e01b600052603260045260246000fd5b90506020020160208101906103fc919061202b565b8989600081811061041d57634e487b7160e01b600052603260045260246000fd5b90506020020160208101906104329190611ef0565b8787600181811061045357634e487b7160e01b600052603260045260246000fd5b9050602002016020810190610468919061202b565b6040516bffffffffffffffffffffffff19606095861b811660208301526001600160e81b031960e895861b8116603484015293861b811660378301529190931b909116604b8301529188901b909116604e8201526062016040516020818303038152906040529050610669565b600287141561066957888585600081811061050057634e487b7160e01b600052603260045260246000fd5b9050602002016020810190610515919061202b565b8989600081811061053657634e487b7160e01b600052603260045260246000fd5b905060200201602081019061054b9190611ef0565b8787600181811061056c57634e487b7160e01b600052603260045260246000fd5b9050602002016020810190610581919061202b565b8b8b60018181106105a257634e487b7160e01b600052603260045260246000fd5b90506020020160208101906105b79190611ef0565b898960028181106105d857634e487b7160e01b600052603260045260246000fd5b90506020020160208101906105ed919061202b565b6040516bffffffffffffffffffffffff19606097881b811660208301526001600160e81b031960e897881b8116603484015295881b8116603783015293861b8516604b82015291861b8316604e83015290931b90911660628301529188901b909116606582015260790160405160208183030381529060405290505b610694897f00000000000000000000000000000000000000000000000000000000000000008c611d44565b604080516080810182528281523060208201528082018c905260608101859052905163b858183f60e01b81527f00000000000000000000000000000000000000000000000000000000000000006001600160a01b03169063b858183f906106ff908490600401612344565b602060405180830381600087803b15801561071957600080fd5b505af115801561072d573d6000803e3d6000fd5b505050506040513d601f19601f82011682018060405250810190610751919061205d565b9b9a5050505050505050505050565b33600090815260036020526040812080548390811061078f57634e487b7160e01b600052603260045260246000fd5b9060005260206000209060030201905080600001548311156107f35760405162461bcd60e51b815260206004820152601e60248201527f496e73756666696369656e74206f776e65727368697020706f696e74732e000060448201526064016103b1565b60008060045483600001546108066114e2565b6108109190612413565b61081a91906123f3565b9050808360010154101561083a5760018301546108379082612432565b91505b82546000906108498784612413565b61085391906123f3565b90506000831561088e57845487606461086d876014612413565b61087791906123f3565b6108819190612413565b61088b91906123f3565b90505b845460649062989680906108a68a633b9aca00612413565b6108b091906123f3565b6108ba91906123f3565b86600101546108c99190612413565b6108d391906123f3565b60018601558454879086906000906108ec908490612432565b9250508190555086600460008282546109059190612432565b90915550506008541561093657606461091f836005612413565b61092991906123f3565b61093390826123db565b90505b7f00000000000000000000000000000000000000000000000000000000000000006001600160a01b031663a9059cbb6109776000546001600160a01b031690565b6040516001600160e01b031960e084901b1681526001600160a01b03909116600482015260248101849052604401602060405180830381600087803b1580156109bf57600080fd5b505af11580156109d3573d6000803e3d6000fd5b505050506040513d601f19601f820116820180604052508101906109f7919061200b565b506001600160a01b037f00000000000000000000000000000000000000000000000000000000000000001663a9059cbb33610a328486612432565b6040516001600160e01b031960e085901b1681526001600160a01b0390921660048301526024820152604401602060405180830381600087803b158015610a7857600080fd5b505af1158015610a8c573d6000803e3d6000fd5b505050506040513d601f19601f82011682018060405250810190610ab0919061200b565b507f0fa9c5fe69b02eb5e21f3e9a5a79dfa9cae1b37d38d5a4393ace824b19104bfe33868985604051610ae6949392919061225b565b60405180910390a150505050505050565b610aff611cea565b6001546001600160a01b031615610b1557600080fd5b600180546001600160a01b0319166001600160a01b0392909216919091179055565b6001600160a01b0382166000908152600360205260408120805482919084908110610b7257634e487b7160e01b600052603260045260246000fd5b9060005260206000209060030201905060006004548260000154610b946114e2565b610b9e9190612413565b610ba891906123f3565b95945050505050565b610bb9611cea565b610bc36000611e44565b565b610bcd611cea565b6001600160a01b0382166000908152600360205260408120805483908110610c0557634e487b7160e01b600052603260045260246000fd5b906000526020600020906003020190504281600201546301e13380610c2a91906123db565b10610c915760405162461bcd60e51b815260206004820152603160248201527f43616e6e6f7420636f6c6c656374207468697320696e766573746d656e74206660448201527032b29030ba103a34329036b7b6b2b73a1760791b60648201526084016103b1565b6000806004548360000154610ca46114e2565b610cae9190612413565b610cb891906123f3565b90508083600101541015610cd8576001830154610cd59082612432565b91505b8115610dc2577f00000000000000000000000000000000000000000000000000000000000000006001600160a01b031663a9059cbb610d1f6000546001600160a01b031690565b6064610d2c866014612413565b610d3691906123f3565b6040516001600160e01b031960e085901b1681526001600160a01b0390921660048301526024820152604401602060405180830381600087803b158015610d7c57600080fd5b505af1158015610d90573d6000803e3d6000fd5b505050506040513d601f19601f82011682018060405250810190610db4919061200b565b50610dbf8282612432565b90505b7f00000000000000000000000000000000000000000000000000000000000000006001600160a01b031663a9059cbb610e036000546001600160a01b031690565b6064610e10856002612413565b610e1a91906123f3565b6040516001600160e01b031960e085901b1681526001600160a01b0390921660048301526024820152604401602060405180830381600087803b158015610e6057600080fd5b505af1158015610e74573d6000803e3d6000fd5b505050506040513d601f19601f82011682018060405250810190610e98919061200b565b506064610ea6826062612413565b610eb091906123f3565b9050826000015460046000828254610ec89190612432565b90915550506001600160a01b0385166000908152600360205260409020805485908110610f0557634e487b7160e01b600052603260045260246000fd5b6000918252602082206003909102018181556001810182905560020181905581610f2d6114e2565b610f379190612432565b610f3f6114e2565b600454610f4c9190612413565b610f5691906123f3565b9050600060045482610f689190612432565b6004839055604080516060810182528281526020808201878152428385019081526001600160a01b038d16600090815260038085528682208054600181810183559184529590922086519590910201938455915191830191909155516002909101559051919250907f0d964fb2121b05d144259e46a8bddfa1f4345f7d31068595c1e2637cee42c39f90610fff908a90849061222a565b60405180910390a15050505050505050565b6305f5e10081101580156110c25750604051636eb1769f60e11b815233600482015230602482015281907f00000000000000000000000000000000000000000000000000000000000000006001600160a01b03169063dd62ed3e9060440160206040518083038186803b15801561108757600080fd5b505afa15801561109b573d6000803e3d6000fd5b505050506040513d601f19601f820116820180604052508101906110bf919061205d565b10155b6111185760405162461bcd60e51b815260206004820152602160248201527f496e73756666696369656e7420616d6f756e74206f7220616c6c6f77616e63656044820152601760f91b60648201526084016103b1565b60025461112890620f4240612413565b61113582620f4240612413565b61113d6114e2565b61114791906123db565b11156111a15760405162461bcd60e51b8152602060048201526024808201527f54686973206465706f73697420776f756c6420657863656564206f7572206c6960448201526336b4ba1760e11b60648201526084016103b1565b7f00000000000000000000000000000000000000000000000000000000000000006001600160a01b03166323b872dd336111e36000546001600160a01b031690565b60646111f0866002612413565b6111fa91906123f3565b6040516001600160e01b031960e086901b1681526001600160a01b0393841660048201529290911660248301526044820152606401602060405180830381600087803b15801561124957600080fd5b505af115801561125d573d6000803e3d6000fd5b505050506040513d601f19601f82011682018060405250810190611281919061200b565b506001600160a01b037f0000000000000000000000000000000000000000000000000000000000000000166323b872dd333060646112c0866062612413565b6112ca91906123f3565b6040516001600160e01b031960e086901b1681526001600160a01b0393841660048201529290911660248301526044820152606401602060405180830381600087803b15801561131957600080fd5b505af115801561132d573d6000803e3d6000fd5b505050506040513d601f19601f82011682018060405250810190611351919061200b565b50606461135f826062612413565b61136991906123f3565b90506000816113766114e2565b6113809190612432565b6113886114e2565b6004546113959190612413565b61139f91906123f3565b90506000600454826113b19190612432565b60048390556040805160608101825282815260208082018781524283850190815233600081815260038086528782208054600181810183559184529690922087519690910201948555925192840192909255516002909201919091559151929350917ffc2bd655c530ad607d7bc06e1ec6fed717a2ed42c2097c2f82119f197a5a50de9161144091849061222a565b60405180910390a150505050565b6001600160a01b0381166000908152600360209081526040808320805482518185028101850190935280835260609492939192909184015b828210156114d65783829060005260206000209060030201604051806060016040529081600082015481526020016001820154815260200160028201548152505081526020019060010190611486565b5050505090505b919050565b60006114ed60085490565b6040516370a0823160e01b81523060048201527f00000000000000000000000000000000000000000000000000000000000000006001600160a01b0316906370a082319060240160206040518083038186803b15801561154c57600080fd5b505afa158015611560573d6000803e3d6000fd5b505050506040513d601f19601f82011682018060405250810190611584919061205d565b61158e91906123db565b905090565b600061159d611cea565b6001600160a01b03861660009081526006602052604090205460ff16151560011480156115e757506001600160a01b03851660009081526006602052604090205460ff1615156001145b6116035760405162461bcd60e51b81526004016103b1906122f7565b61162e867f000000000000000000000000000000000000000000000000000000000000000089611d44565b6040805160e0810182526001600160a01b0388811682528781166020830190815262ffffff8881168486019081523060608601908152608086018e815260a087018b81528a871660c0890190815298516304e45aaf60e01b8152885188166004820152955187166024870152925190931660448501525184166064840152905160848301525160a48201529251811660c484015290917f0000000000000000000000000000000000000000000000000000000000000000909116906304e45aaf9060e401602060405180830381600087803b15801561170c57600080fd5b505af1158015611720573d6000803e3d6000fd5b505050506040513d601f19601f82011682018060405250810190611744919061205d565b98975050505050505050565b6001600160a01b038216600090815260036020526040812080548390811061178857634e487b7160e01b600052603260045260246000fd5b9060005260206000209060030201905080600001548411156117ec5760405162461bcd60e51b815260206004820152601e60248201527f496e73756666696369656e74206f776e65727368697020706f696e74732e000060448201526064016103b1565b60008060045483600001546117ff6114e2565b6118099190612413565b61181391906123f3565b905080836001015410156118335760018301546118309082612432565b91505b82546000906118428884612413565b61184c91906123f3565b905060008315611887578454886064611866876014612413565b61187091906123f3565b61187a9190612413565b61188491906123f3565b90505b8454606490629896809061189f8b633b9aca00612413565b6118a991906123f3565b6118b391906123f3565b86600101546118c29190612413565b6118cc91906123f3565b60018601558454889086906000906118e5908490612432565b9250508190555087600460008282546118fe9190612432565b90915550506001600160a01b037f00000000000000000000000000000000000000000000000000000000000000001663a9059cbb6119446000546001600160a01b031690565b6040516001600160e01b031960e084901b1681526001600160a01b03909116600482015260248101849052604401602060405180830381600087803b15801561198c57600080fd5b505af11580156119a0573d6000803e3d6000fd5b505050506040513d601f19601f820116820180604052508101906119c4919061200b565b506001600160a01b037f00000000000000000000000000000000000000000000000000000000000000001663a9059cbb886119ff8486612432565b6040516001600160e01b031960e085901b1681526001600160a01b0390921660048301526024820152604401602060405180830381600087803b158015611a4557600080fd5b505af1158015611a59573d6000803e3d6000fd5b505050506040513d601f19601f82011682018060405250810190611a7d919061200b565b507f0fa9c5fe69b02eb5e21f3e9a5a79dfa9cae1b37d38d5a4393ace824b19104bfe87868a85604051610fff949392919061225b565b611abb611cea565b6001600160a01b038116611b205760405162461bcd60e51b815260206004820152602660248201527f4f776e61626c653a206e6577206f776e657220697320746865207a65726f206160448201526564647265737360d01b60648201526084016103b1565b611b2981611e44565b50565b6001546001600160a01b03163314611b4357600080fd5b60085415611b5057600080fd5b6001546040516323b872dd60e01b81526001600160a01b039182166004820152306024820152604481018490527f0000000000000000000000000000000000000000000000000000000000000000909116906323b872dd90606401602060405180830381600087803b158015611bc557600080fd5b505af1158015611bd9573d6000803e3d6000fd5b505050506040513d601f19601f82011682018060405250810190611bfd919061200b565b50600082611c096114e2565b611c139190612432565b611c1b6114e2565b600454611c289190612413565b611c3291906123f3565b9050600060045482611c449190612432565b6004839055604080516060810182528281526020808201888152428385019081526001600160a01b038916600090815260038085528682208054600181810183559184529590922086519590910201938455915191830191909155516002909101559051919250907ffc2bd655c530ad607d7bc06e1ec6fed717a2ed42c2097c2f82119f197a5a50de90611cdb908690849061222a565b60405180910390a15050505050565b6000546001600160a01b03163314610bc35760405162461bcd60e51b815260206004820181905260248201527f4f776e61626c653a2063616c6c6572206973206e6f7420746865206f776e657260448201526064016103b1565b604080516001600160a01b038481166024830152604480830185905283518084039091018152606490920183526020820180516001600160e01b031663095ea7b360e01b1790529151600092839290871691611da0919061220e565b6000604051808303816000865af19150503d8060008114611ddd576040519150601f19603f3d011682016040523d82523d6000602084013e611de2565b606091505b5091509150818015611e0c575080511580611e0c575080806020019051810190611e0c919061200b565b611e3d5760405162461bcd60e51b8152602060048201526002602482015261534160f01b60448201526064016103b1565b5050505050565b600080546001600160a01b038381166001600160a01b0319831681178455604051919092169283917f8be0079c531659141344cd1fd0a4f28419497f9722a3daafe3b4186f6b6457e09190a35050565b60008083601f840112611ea5578081fd5b50813567ffffffffffffffff811115611ebc578182fd5b6020830191508360208083028501011115611ed657600080fd5b9250929050565b803562ffffff811681146114dd57600080fd5b600060208284031215611f01578081fd5b8135611f0c816124c0565b9392505050565b60008060408385031215611f25578081fd5b8235611f30816124c0565b946020939093013593505050565b6000806040808486031215611f51578283fd5b833567ffffffffffffffff80821115611f68578485fd5b818601915086601f830112611f7b578485fd5b8135602082821115611f8f57611f8f6124aa565b611f9c81828402016123aa565b8281528181019350848201868402860183018b1015611fb9578889fd5b8895505b83861015611ffc5786818c031215611fd3578889fd5b611fdc876123aa565b813581528382013584820152855260019590950194938201938601611fbd565b50999701359750505050505050565b60006020828403121561201c578081fd5b81518015158114611f0c578182fd5b60006020828403121561203c578081fd5b611f0c82611edd565b600060208284031215612056578081fd5b5035919050565b60006020828403121561206e578081fd5b5051919050565b60008060408385031215612087578182fd5b823591506020830135612099816124c0565b809150509250929050565b60008060008060008060c087890312156120bc578182fd5b8635955060208701356120ce816124c0565b945060408701356120de816124c0565b93506120ec60608801611edd565b92506080870135915060a0870135612103816124c0565b809150509295509295509295565b60008060008060008060008060c0898b03121561212c578182fd5b88359750602089013561213e816124c0565b9650604089013567ffffffffffffffff8082111561215a578384fd5b6121668c838d01611e94565b909850965060608b0135915061217b826124c0565b90945060808a01359080821115612190578384fd5b5061219d8b828c01611e94565b999c989b50969995989497949560a00135949350505050565b6000806000606084860312156121ca578283fd5b8335925060208401356121dc816124c0565b929592945050506040919091013590565b600080604083850312156121ff578182fd5b50508035926020909101359150565b60008251612220818460208701612449565b9190910192915050565b6001600160a01b038316815260808101611f0c60208301848051825260208082015190830152604090810151910152565b6001600160a01b0394909416845282546020850152600183015460408501526002909201546060840152608083015260a082015260c00190565b6020808252825182820181905260009190848201906040850190845b818110156122eb576122d88385518051825260208082015190830152604090810151910152565b92840192606092909201916001016122b1565b50909695505050505050565b6020808252602d908201527f596f752063616e277420747261646520746f6b656e732074686174206172652060408201526c3737ba1030b8383937bb32b21760991b606082015260800190565b60006020825282516080602084015280518060a085015261236c8160c0860160208501612449565b60208501516001600160a01b0316604085810191909152850151606080860191909152909401516080840152505060c0601f909201601f1916010190565b604051601f8201601f1916810167ffffffffffffffff811182821017156123d3576123d36124aa565b604052919050565b600082198211156123ee576123ee612494565b500190565b60008261240e57634e487b7160e01b81526012600452602481fd5b500490565b600081600019048311821515161561242d5761242d612494565b500290565b60008282101561244457612444612494565b500390565b60005b8381101561246457818101518382015260200161244c565b83811115612473576000848401525b50505050565b600060001982141561248d5761248d612494565b5060010190565b634e487b7160e01b600052601160045260246000fd5b634e487b7160e01b600052604160045260246000fd5b6001600160a01b0381168114611b2957600080fdfea2646970667358221220623c79655a9ff64cf93e845ff5981bc22d2f29620af7075a0249fbbe1beb697964736f6c63430008020033",
  "linkReferences": {},
  "deployedLinkReferences": {}
}