{
  "_format": "hh-sol-artifact-1",
  "contractName": "Trading",
  "sourceName": "contracts/Trading.sol",
  "abi": [
    {
      "inputs": [
        {
          "internalType": "address",
          "name": "_USDC_ADDRESS",
          "type": "address"
        },
        {
          "internalType": "address[]",
          "name": "_tokens",
          "type": "address[]"
        },
        {
          "internalType": "address",
          "name": "_swapRouterAddress",
          "type": "address"
        },
        {
          "internalType": "address",
          "name": "_gmxRouter",
          "type": "address"
        },
        {
          "internalType": "address",
          "name": "_gmxPositionRouter",
          "type": "address"
        }
      ],
      "stateMutability": "nonpayable",
      "type": "constructor"
    },
    {
      "anonymous": false,
      "inputs": [
        {
          "indexed": true,
          "internalType": "address",
          "name": "previousOwner",
          "type": "address"
        },
        {
          "indexed": true,
          "internalType": "address",
          "name": "newOwner",
          "type": "address"
        }
      ],
      "name": "OwnershipTransferred",
      "type": "event"
    },
    {
      "anonymous": false,
      "inputs": [
        {
          "indexed": false,
          "internalType": "address",
          "name": "user",
          "type": "address"
        },
        {
          "components": [
            {
              "internalType": "uint256",
              "name": "userOwnership",
              "type": "uint256"
            },
            {
              "internalType": "uint256",
              "name": "initialInvestment",
              "type": "uint256"
            },
            {
              "internalType": "uint256",
              "name": "annualFeeColectedTime",
              "type": "uint256"
            }
          ],
          "indexed": false,
          "internalType": "struct Investment",
          "name": "newInvestment",
          "type": "tuple"
        }
      ],
      "name": "feeCollected",
      "type": "event"
    },
    {
      "anonymous": false,
      "inputs": [
        {
          "indexed": false,
          "internalType": "address",
          "name": "user",
          "type": "address"
        },
        {
          "components": [
            {
              "internalType": "uint256",
              "name": "userOwnership",
              "type": "uint256"
            },
            {
              "internalType": "uint256",
              "name": "initialInvestment",
              "type": "uint256"
            },
            {
              "internalType": "uint256",
              "name": "annualFeeColectedTime",
              "type": "uint256"
            }
          ],
          "indexed": false,
          "internalType": "struct Investment",
          "name": "investment",
          "type": "tuple"
        }
      ],
      "name": "userDeposit",
      "type": "event"
    },
    {
      "anonymous": false,
      "inputs": [
        {
          "indexed": false,
          "internalType": "address",
          "name": "user",
          "type": "address"
        },
        {
          "components": [
            {
              "internalType": "uint256",
              "name": "userOwnership",
              "type": "uint256"
            },
            {
              "internalType": "uint256",
              "name": "initialInvestment",
              "type": "uint256"
            },
            {
              "internalType": "uint256",
              "name": "annualFeeColectedTime",
              "type": "uint256"
            }
          ],
          "indexed": false,
          "internalType": "struct Investment",
          "name": "investment",
          "type": "tuple"
        },
        {
          "indexed": false,
          "internalType": "uint256",
          "name": "amount",
          "type": "uint256"
        }
      ],
      "name": "withdrawnFromInvestment",
      "type": "event"
    },
    {
      "inputs": [
        {
          "internalType": "address",
          "name": "user",
          "type": "address"
        },
        {
          "internalType": "uint256",
          "name": "investmentNumber",
          "type": "uint256"
        }
      ],
      "name": "collectFees",
      "outputs": [],
      "stateMutability": "nonpayable",
      "type": "function"
    },
    {
      "inputs": [
        {
          "internalType": "uint256",
          "name": "amount",
          "type": "uint256"
        }
      ],
      "name": "deposit",
      "outputs": [],
      "stateMutability": "nonpayable",
      "type": "function"
    },
    {
      "inputs": [],
      "name": "getContractValue",
      "outputs": [
        {
          "internalType": "uint256",
          "name": "",
          "type": "uint256"
        }
      ],
      "stateMutability": "view",
      "type": "function"
    },
    {
      "inputs": [
        {
          "internalType": "address",
          "name": "user",
          "type": "address"
        },
        {
          "internalType": "uint256",
          "name": "investmentNumber",
          "type": "uint256"
        }
      ],
      "name": "getUSDCValueFromInvestment",
      "outputs": [
        {
          "internalType": "uint256",
          "name": "",
          "type": "uint256"
        }
      ],
      "stateMutability": "view",
      "type": "function"
    },
    {
      "inputs": [
        {
          "internalType": "address",
          "name": "user",
          "type": "address"
        }
      ],
      "name": "getUserInvestments",
      "outputs": [
        {
          "components": [
            {
              "internalType": "uint256",
              "name": "userOwnership",
              "type": "uint256"
            },
            {
              "internalType": "uint256",
              "name": "initialInvestment",
              "type": "uint256"
            },
            {
              "internalType": "uint256",
              "name": "annualFeeColectedTime",
              "type": "uint256"
            }
          ],
          "internalType": "struct Investment[]",
          "name": "",
          "type": "tuple[]"
        }
      ],
      "stateMutability": "view",
      "type": "function"
    },
    {
      "inputs": [],
      "name": "gettotalUserOwnershipPoints",
      "outputs": [
        {
          "internalType": "uint256",
          "name": "",
          "type": "uint256"
        }
      ],
      "stateMutability": "view",
      "type": "function"
    },
    {
      "inputs": [],
      "name": "owner",
      "outputs": [
        {
          "internalType": "address",
          "name": "",
          "type": "address"
        }
      ],
      "stateMutability": "view",
      "type": "function"
    },
    {
      "inputs": [],
      "name": "renounceOwnership",
      "outputs": [],
      "stateMutability": "nonpayable",
      "type": "function"
    },
    {
      "inputs": [
        {
          "internalType": "uint256",
          "name": "amount",
          "type": "uint256"
        }
      ],
      "name": "setMaxAssetsDeposited",
      "outputs": [],
      "stateMutability": "nonpayable",
      "type": "function"
    },
    {
      "inputs": [],
      "name": "swapRouter",
      "outputs": [
        {
          "internalType": "contract ISwapRouter",
          "name": "",
          "type": "address"
        }
      ],
      "stateMutability": "view",
      "type": "function"
    },
    {
      "inputs": [
        {
          "internalType": "uint256",
          "name": "_amountIn",
          "type": "uint256"
        },
        {
          "internalType": "address",
          "name": "_tokenIn",
          "type": "address"
        },
        {
          "internalType": "address",
          "name": "_tokenOut",
          "type": "address"
        },
        {
          "internalType": "uint24",
          "name": "poolFee",
          "type": "uint24"
        },
        {
          "internalType": "uint256",
          "name": "_amountOutMinimum",
          "type": "uint256"
        },
        {
          "internalType": "uint160",
          "name": "_sqrtPriceLimitX96",
          "type": "uint160"
        }
      ],
      "name": "swapTokens",
      "outputs": [
        {
          "internalType": "uint256",
          "name": "amountOut",
          "type": "uint256"
        }
      ],
      "stateMutability": "nonpayable",
      "type": "function"
    },
    {
      "inputs": [
        {
          "internalType": "uint256",
          "name": "_amountIn",
          "type": "uint256"
        },
        {
          "internalType": "address",
          "name": "_tokenIn",
          "type": "address"
        },
        {
          "internalType": "address",
          "name": "middlemanToken",
          "type": "address"
        },
        {
          "internalType": "address",
          "name": "_tokenOut",
          "type": "address"
        },
        {
          "internalType": "uint24",
          "name": "poolFee1",
          "type": "uint24"
        },
        {
          "internalType": "uint24",
          "name": "poolFee2",
          "type": "uint24"
        },
        {
          "internalType": "uint256",
          "name": "_amountOutMinimum",
          "type": "uint256"
        }
      ],
      "name": "swapTokensMultihop",
      "outputs": [
        {
          "internalType": "uint256",
          "name": "amountOut",
          "type": "uint256"
        }
      ],
      "stateMutability": "nonpayable",
      "type": "function"
    },
    {
      "inputs": [
        {
          "internalType": "address",
          "name": "newOwner",
          "type": "address"
        }
      ],
      "name": "transferOwnership",
      "outputs": [],
      "stateMutability": "nonpayable",
      "type": "function"
    },
    {
      "inputs": [
        {
          "internalType": "uint256",
          "name": "amount",
          "type": "uint256"
        },
        {
          "internalType": "uint256",
          "name": "investmentNumber",
          "type": "uint256"
        }
      ],
      "name": "withdraw",
      "outputs": [],
      "stateMutability": "nonpayable",
      "type": "function"
    }
  ],
  "bytecode": "0x60c06040523480156200001157600080fd5b5060405162001d9538038062001d958339810160408190526200003491620001ce565b6200003f3362000161565b6001600160601b0319606086811b82166080526a084595161401484a00000060015584901b1660a05260005b84518160ff161015620000e957600160056000878460ff1681518110620000a257634e487b7160e01b600052603260045260246000fd5b6020908102919091018101516001600160a01b03168252810191909152604001600020805460ff191691151591909117905580620000e081620002f0565b9150506200006b565b505060408051606081018252633b9aca0080825268056bc75e2d6310000060208084019182524284860190815233600090815260028084529681208054600181810183559183529390912095516003938402909601958655925192850192909255905192909301919091559055506200033392505050565b600080546001600160a01b038381166001600160a01b0319831681178455604051919092169283917f8be0079c531659141344cd1fd0a4f28419497f9722a3daafe3b4186f6b6457e09190a35050565b80516001600160a01b0381168114620001c957600080fd5b919050565b600080600080600060a08688031215620001e6578081fd5b620001f186620001b1565b602087810151919650906001600160401b038082111562000210578384fd5b818901915089601f83011262000224578384fd5b8151818111156200023957620002396200031d565b838102604051601f19603f830116810181811085821117156200026057620002606200031d565b604052828152858101935084860182860187018e10156200027f578788fd5b8795505b83861015620002ac576200029781620001b1565b85526001959095019493860193860162000283565b50809950505050505050620002c460408701620001b1565b9250620002d460608701620001b1565b9150620002e460808701620001b1565b90509295509295909350565b600060ff821660ff8114156200031457634e487b7160e01b82526011600452602482fd5b60010192915050565b634e487b7160e01b600052604160045260246000fd5b60805160601c60a05160601c6119e9620003ac60003960008181610199015281816110820152818161114f015281816112c901526113850152600081816103e2015281816104a4015281816107540152818161083801528181610ab601528181610c2601528181610d0f0152610f7b01526119e96000f3fe608060405234801561001057600080fd5b50600436106100ea5760003560e01c8063b6b55f251161008c578063dc82697c11610066578063dc82697c146101db578063e52c6cfb146101e3578063f2fde38b146101f6578063f63f4d1514610209576100ea565b8063b6b55f2514610181578063c31c9c0714610194578063c52c5c88146101bb576100ea565b806363169936116100c8578063631699361461012e578063715018a6146101415780638da5cb5b14610149578063a033fcd41461016e576100ea565b80630d9bbc11146100ef5780631e4d425414610104578063441a3e701461011b575b600080fd5b6101026100fd366004611644565b61021c565b005b6003545b6040519081526020015b60405180910390f35b61010261012936600461175e565b610229565b61010861013c3660046115f9565b6105b0565b610102610625565b6000546001600160a01b03165b6040516001600160a01b039091168152602001610112565b61010261017c3660046115f9565b610639565b61010261018f366004611644565b610a86565b6101567f000000000000000000000000000000000000000000000000000000000000000081565b6101ce6101c93660046115d6565b610ecf565b60405161011291906117cc565b610108610f63565b6101086101f13660046116f1565b61100c565b6101026102043660046115d6565b6111da565b610108610217366004611674565b611253565b610224611419565b600155565b33600090815260026020526040812080548390811061025857634e487b7160e01b600052603260045260246000fd5b9060005260206000209060030201905080600001548311156102c15760405162461bcd60e51b815260206004820152601e60248201527f496e73756666696369656e74206f776e65727368697020706f696e74732e000060448201526064015b60405180910390fd5b60008060035483600001546102d4610f63565b6102de9190611922565b6102e89190611902565b905080836001015410156103085760018301546103059082611941565b91505b82546000906103178784611922565b6103219190611902565b90506000831561035c57845487606461033b876014611922565b6103459190611902565b61034f9190611922565b6103599190611902565b90505b845460649062989680906103748a633b9aca00611922565b61037e9190611902565b6103889190611902565b86600101546103979190611922565b6103a19190611902565b60018601558454879086906000906103ba908490611941565b9250508190555086600360008282546103d39190611941565b90915550506001600160a01b037f00000000000000000000000000000000000000000000000000000000000000001663a9059cbb6104196000546001600160a01b031690565b6040516001600160e01b031960e084901b1681526001600160a01b03909116600482015260248101849052604401602060405180830381600087803b15801561046157600080fd5b505af1158015610475573d6000803e3d6000fd5b505050506040513d601f19601f820116820180604052508101906104999190611624565b506001600160a01b037f00000000000000000000000000000000000000000000000000000000000000001663a9059cbb336104d48486611941565b6040516001600160e01b031960e085901b1681526001600160a01b0390921660048301526024820152604401602060405180830381600087803b15801561051a57600080fd5b505af115801561052e573d6000803e3d6000fd5b505050506040513d601f19601f820116820180604052508101906105529190611624565b506040805133815286546020820152600187015481830152600287015460608201526080810189905290517fb3842933f5a8820da1f0dc7992b33763213babdbc70fd54e936703a61105d1a89181900360a00190a150505050505050565b6001600160a01b03821660009081526002602052604081208054829190849081106105eb57634e487b7160e01b600052603260045260246000fd5b600091825260208220600380549202018054909350610608610f63565b6106129190611922565b61061c9190611902565b95945050505050565b61062d611419565b6106376000611473565b565b610641611419565b6001600160a01b038216600090815260026020526040812080548390811061067957634e487b7160e01b600052603260045260246000fd5b906000526020600020906003020190504281600201546301e1338061069e91906118ea565b106107055760405162461bcd60e51b815260206004820152603160248201527f43616e6e6f7420636f6c6c656374207468697320696e766573746d656e74206660448201527032b29030ba103a34329036b7b6b2b73a1760791b60648201526084016102b8565b6000806003548360000154610718610f63565b6107229190611922565b61072c9190611902565b9050808360010154101561074c5760018301546107499082611941565b91505b8115610836577f00000000000000000000000000000000000000000000000000000000000000006001600160a01b031663a9059cbb6107936000546001600160a01b031690565b60646107a0866014611922565b6107aa9190611902565b6040516001600160e01b031960e085901b1681526001600160a01b0390921660048301526024820152604401602060405180830381600087803b1580156107f057600080fd5b505af1158015610804573d6000803e3d6000fd5b505050506040513d601f19601f820116820180604052508101906108289190611624565b506108338282611941565b90505b7f00000000000000000000000000000000000000000000000000000000000000006001600160a01b031663a9059cbb6108776000546001600160a01b031690565b6064610884856002611922565b61088e9190611902565b6040516001600160e01b031960e085901b1681526001600160a01b0390921660048301526024820152604401602060405180830381600087803b1580156108d457600080fd5b505af11580156108e8573d6000803e3d6000fd5b505050506040513d601f19601f8201168201806040525081019061090c9190611624565b50606461091a826062611922565b6109249190611902565b905082600001546003600082825461093c9190611941565b90915550506001600160a01b038516600090815260026020526040902080548590811061097957634e487b7160e01b600052603260045260246000fd5b60009182526020822060039091020181815560018101829055600201819055816109a1610f63565b6109ab9190611941565b6109b3610f63565b6003546109c09190611922565b6109ca9190611902565b90506000600354826109dc9190611941565b6003838155604080516060810182528381526020808201888152428385019081526001600160a01b038e1660009081526002808552868220805460018181018355918452959092208651959098029097019384559151918301919091555193019290925551919250907f0d964fb2121b05d144259e46a8bddfa1f4345f7d31068595c1e2637cee42c39f90610a74908a90849061179b565b60405180910390a15050505050505050565b68056bc75e2d6310000081118015610b3b5750604051636eb1769f60e11b815233600482015230602482015281907f00000000000000000000000000000000000000000000000000000000000000006001600160a01b03169063dd62ed3e9060440160206040518083038186803b158015610b0057600080fd5b505afa158015610b14573d6000803e3d6000fd5b505050506040513d601f19601f82011682018060405250810190610b38919061165c565b10155b610b915760405162461bcd60e51b815260206004820152602160248201527f496e73756666696369656e7420616d6f756e74206f7220616c6c6f77616e63656044820152601760f91b60648201526084016102b8565b600154610ba690670de0b6b3a7640000611922565b610bb882670de0b6b3a7640000611922565b610bc0610f63565b610bca91906118ea565b1115610c245760405162461bcd60e51b8152602060048201526024808201527f54686973206465706f73697420776f756c6420657863656564206f7572206c6960448201526336b4ba1760e11b60648201526084016102b8565b7f00000000000000000000000000000000000000000000000000000000000000006001600160a01b03166323b872dd33610c666000546001600160a01b031690565b6064610c73866002611922565b610c7d9190611902565b6040516001600160e01b031960e086901b1681526001600160a01b0393841660048201529290911660248301526044820152606401602060405180830381600087803b158015610ccc57600080fd5b505af1158015610ce0573d6000803e3d6000fd5b505050506040513d601f19601f82011682018060405250810190610d049190611624565b506001600160a01b037f0000000000000000000000000000000000000000000000000000000000000000166323b872dd33306064610d43866062611922565b610d4d9190611902565b6040516001600160e01b031960e086901b1681526001600160a01b0393841660048201529290911660248301526044820152606401602060405180830381600087803b158015610d9c57600080fd5b505af1158015610db0573d6000803e3d6000fd5b505050506040513d601f19601f82011682018060405250810190610dd49190611624565b506064610de2826062611922565b610dec9190611902565b9050600081610df9610f63565b610e039190611941565b610e0b610f63565b600354610e189190611922565b610e229190611902565b9050600060035482610e349190611941565b6003838155604080516060810182528381526020808201888152428385019081523360008181526002808652878220805460018181018355918452969092208751969099029098019485559251928401929092555191909401559051929350917ffc2bd655c530ad607d7bc06e1ec6fed717a2ed42c2097c2f82119f197a5a50de91610ec191849061179b565b60405180910390a150505050565b6001600160a01b0381166000908152600260209081526040808320805482518185028101850190935280835260609492939192909184015b82821015610f575783829060005260206000209060030201604051806060016040529081600082015481526020016001820154815260200160028201548152505081526020019060010190610f07565b5050505090505b919050565b6000806040516370a0823160e01b81523060048201527f00000000000000000000000000000000000000000000000000000000000000006001600160a01b0316906370a082319060240160206040518083038186803b158015610fc557600080fd5b505afa158015610fd9573d6000803e3d6000fd5b505050506040513d601f19601f82011682018060405250810190610ffd919061165c565b61100791906118ea565b905090565b6000611016611419565b6001600160a01b03861660009081526005602052604090205460ff161515600114801561106057506001600160a01b03851660009081526005602052604090205460ff1615156001145b61107c5760405162461bcd60e51b81526004016102b89061182e565b6110a7867f0000000000000000000000000000000000000000000000000000000000000000896114c3565b60408051610100810182526001600160a01b0388811682528781166020830190815262ffffff8881168486019081523360608601908152426080870190815260a087018f815260c088018c81528b881660e08a01908152995163414bf38960e01b815289518916600482015296518816602488015293519094166044860152905185166064850152516084840152905160a48301525160c48201529251811660e484015290917f00000000000000000000000000000000000000000000000000000000000000009091169063414bf3899061010401602060405180830381600087803b15801561119657600080fd5b505af11580156111aa573d6000803e3d6000fd5b505050506040513d601f19601f820116820180604052508101906111ce919061165c565b98975050505050505050565b6111e2611419565b6001600160a01b0381166112475760405162461bcd60e51b815260206004820152602660248201527f4f776e61626c653a206e6577206f776e657220697320746865207a65726f206160448201526564647265737360d01b60648201526084016102b8565b61125081611473565b50565b600061125d611419565b6001600160a01b03871660009081526005602052604090205460ff16151560011480156112a757506001600160a01b03851660009081526005602052604090205460ff1615156001145b6112c35760405162461bcd60e51b81526004016102b89061182e565b6112ee877f00000000000000000000000000000000000000000000000000000000000000008a6114c3565b6040805160a0810182526bffffffffffffffffffffffff1960608a811b821660c08401526001600160e81b031960e889811b821660d48601528b831b841660d786015288901b1660eb84015288811b90911660ee830152825180830360e2018152610102830184528252336020830152428284015281018a905260808101849052905163c04b8d5960e01b81526001600160a01b037f0000000000000000000000000000000000000000000000000000000000000000169063c04b8d59906113ba90849060040161187b565b602060405180830381600087803b1580156113d457600080fd5b505af11580156113e8573d6000803e3d6000fd5b505050506040513d601f19601f8201168201806040525081019061140c919061165c565b9998505050505050505050565b6000546001600160a01b031633146106375760405162461bcd60e51b815260206004820181905260248201527f4f776e61626c653a2063616c6c6572206973206e6f7420746865206f776e657260448201526064016102b8565b600080546001600160a01b038381166001600160a01b0319831681178455604051919092169283917f8be0079c531659141344cd1fd0a4f28419497f9722a3daafe3b4186f6b6457e09190a35050565b604080516001600160a01b038481166024830152604480830185905283518084039091018152606490920183526020820180516001600160e01b031663095ea7b360e01b179052915160009283929087169161151f919061177f565b6000604051808303816000865af19150503d806000811461155c576040519150601f19603f3d011682016040523d82523d6000602084013e611561565b606091505b509150915081801561158b57508051158061158b57508080602001905181019061158b9190611624565b6115bc5760405162461bcd60e51b8152602060048201526002602482015261534160f01b60448201526064016102b8565b5050505050565b803562ffffff81168114610f5e57600080fd5b6000602082840312156115e7578081fd5b81356115f28161199e565b9392505050565b6000806040838503121561160b578081fd5b82356116168161199e565b946020939093013593505050565b600060208284031215611635578081fd5b815180151581146115f2578182fd5b600060208284031215611655578081fd5b5035919050565b60006020828403121561166d578081fd5b5051919050565b600080600080600080600060e0888a03121561168e578283fd5b8735965060208801356116a08161199e565b955060408801356116b08161199e565b945060608801356116c08161199e565b93506116ce608089016115c3565b92506116dc60a089016115c3565b915060c0880135905092959891949750929550565b60008060008060008060c08789031215611709578182fd5b86359550602087013561171b8161199e565b9450604087013561172b8161199e565b9350611739606088016115c3565b92506080870135915060a08701356117508161199e565b809150509295509295509295565b60008060408385031215611770578182fd5b50508035926020909101359150565b60008251611791818460208701611958565b9190910192915050565b6001600160a01b0383168152608081016115f260208301848051825260208082015190830152604090810151910152565b6020808252825182820181905260009190848201906040850190845b818110156118225761180f8385518051825260208082015190830152604090810151910152565b92840192606092909201916001016117e8565b50909695505050505050565b6020808252602d908201527f596f752063616e277420747261646520746f6b656e732074686174206172652060408201526c3737ba1030b8383937bb32b21760991b606082015260800190565b600060208252825160a0602084015280518060c08501526118a38160e0860160208501611958565b60018060a01b0360208601511660408501526040850151606085015260608501516080850152608085015160a085015260e0601f19601f8301168501019250505092915050565b600082198211156118fd576118fd611988565b500190565b60008261191d57634e487b7160e01b81526012600452602481fd5b500490565b600081600019048311821515161561193c5761193c611988565b500290565b60008282101561195357611953611988565b500390565b60005b8381101561197357818101518382015260200161195b565b83811115611982576000848401525b50505050565b634e487b7160e01b600052601160045260246000fd5b6001600160a01b038116811461125057600080fdfea26469706673582212208a3e7a9dee0402419ff7f03a7edb36a0c2e8fa4aef142116fe35c59280f622dc64736f6c63430008020033",
  "linkReferences": {},
  "deployedLinkReferences": {}
}